:100564000D0A00BFAACABC2E2E2E00B5DA4EB8F66C
:10057400CAFD00CAAEBDF8D6C63A00CAAEC1F9BDBE
:0D058400F8D6C63A00B6FEBDF8D6C63A005D
:06059100013300013601F8
:100530007B64754E27754F107553007552CA7551FF
:100540009A75503B7F64E4FCFDFE1203A5AE4EAFEE
:100550004FE4FCFD1203A5AF53AE52AD51AC5012A7
:0405600003A580FE71
:0803A5008F578E568D558C54C4
:1003AD00E5337032753301F534F5350535E53570C6
:1003BD00020534B410F5E534B427F07BFF7A0579E6
:1003CD00671204DA7BFF7A0579641204DA7BFF7A0F
:1003DD000579641204DAAF57AE56AD55AC547B00B7
:1003ED007A007908755F011200031204D4AF57AE7D
:1003FD0056AD55AC547B007A007908755F0212003A
:10040D00031204D4AF57AE56AD55AC547B007A00F1
:10041D007908755F031200031204D4AF57AE56ADC1
:10042D0055AC547B007A007908755F0412000312F5
:0B043D0004D47BFF7A0579640204DA26
:0E0003008F5B8E5A8D598C588B5C8A5D895E9E
:10001100E55F6401706EF537F538746F2538F58248
:1000210074053537F583E493AB5CAA5DA95E853829
:10003100828537831202A40538E5387002053764DA
:1000410007453770D5E5362430AB5CAA5DA95E90D3
:1000510000021202A4853882853783740D1202A42E
:10006100E5382401FFE435378F82F583740A1202E3
:10007100A4E5382402FFE435378F82F583E41202C8
:10008100A4053622E55F6402704DF537F5387477C3
:100091002538F58274053537F583E493AB5CAA5DA9
:1000A100A95E8538828537831202A40538E5387048
:1000B1000205376407453770D5754000753FCA752D
:1000C1003E9A753D3BE475440AF543F542F541F529
:1000D1003B753C0A02016FE55F64037049F537F532
:1000E10038747F2538F58274053537F583E493AB91
:1000F1005CAA5DA95E8538828537831202A4053822
:10010100E538700205376409453770D5E4F540F5E7
:100111003FF53E753D10754410F543F542F541F547
:100121003B753C088048E4F537F53874892538F586
:100131008274053537F583E493AB5CAA5DA95E85CE
:1001410038828537831202A40538E53870020537F5
:100151006407453770D5E4F540F53FF53E753D80C0
:10016100754402F543F542F541F53B753C20E4F554
:1001710049F539F53AC3E53A953CE539953B4003F4
:10018100020244AB40AA3FA93EA83DAF5BAE5AADC7
:1001910059AC58120302AB44AA43A942A841120325
:1001A10002AC00AD01AE02AF038F488E478D468C85
:1001B10045E47F0AFEFDFCC3120394E54850042484
:1001C1003080022437AB5CAA5DA95E853882853711
:1001D100831202A4E4FFFEFDFCAB5BAA5AA959A855
:1001E10058C3120394700A0538E5387056053780F4
:1001F10052E5497020AB5CAA5DA95E8538828537DE
:1002010083120277643060157549010538E538704D
:100211000C053780080538E53870020537AF40AE68
:100221003FAD3EAC3DAB44AA43A942A841120302F3
:100231008F408E3F8D3E8C3D053AE53A700205397F
:10024100020176AB5CAA5DA95E853882853783742D
:100251000D1202A4E5382401FFE435378F82F583BE
:10026100740A1202A4E5382402FFE435378F82F5BF
:0502710083E41202A469
:010276002265
:0604D4007B007A007908AC
:0604DA008B588A59895A73
:1004E000759850758921758BFD758DFDD28EC2ACC6
:1004F000C299E4F54AF54BAB58AA59A95A854B82E3
:10050000854A831202776027F599E4F54CF54D058D
:100510004DE54D7002054CB420F5E54CB403F0C236
:0F05200099054BE54B7002054A642B454A70C89C
:01052F0022A9
:03000000020448AF
:0C044800787FE4F6D8FD75815F02048F18
:10027700BB010CE58229F582E5833AF583E022503C
:1002870006E92582F8E622BBFE06E92582F8E22286
:0D029700E58229F582E5833AF583E49322A0
:1002A400F8BB010DE58229F582E5833AF583E8F090
:1002B400225006E92582C8F622BBFE05E92582C83C
:0202C400F22224
:1002C60075F008758200EF2FFFEE33FECD33CDCCEF
:1002D60033CCC58233C5829BED9AEC99E582984072
:1002E6000CF582EE9BFEED9AFDEC99FC0FD5F0D64F
:1002F600E4CEFBE4CDFAE4CCF9A88222B800C1B979
:100306000059BA002DEC8BF084CFCECDFCE5F0CBB6
:10031600F97818EF2FFFEE33FEED33FDEC33FCEBEF
:1003260033FB10D703994004EB99FB0FD8E5E4F9AA
:10033600FA227818EF2FFFEE33FEED33FDEC33FC97
:10034600C933C910D7059BE99A4007EC9BFCE99A8B
:10035600F90FD8E0E4C9FAE4CCFB2275F010EF2FD0
:10036600FFEE33FEED33FDCC33CCC833C810D707D0
:100376009BEC9AE899400AED9BFDEC9AFCE899F80B
:0E0386000FD5F0DAE4CDFBE4CCFAE4C8F9229E
:10039400EB9FF5F0EA9E42F0E99D42F0E89C45F0BF
:0103A4002236
:10045400020530E493A3F8E493A34003F68001F289
:1004640008DFF48029E493A3F85407240CC8C333A9
:10047400C4540F4420C8834004F456800146F6DF78
:10048400E4800B0102040810204080900591E47E72
:10049400019360BCA3FF543F30E509541FFEE4936D
:1004A400A360010ECF54C025E060A840B8E493A334
:1004B400FAE493A3F8E493A3C8C582C8CAC583CA5F
:1004C400F0A3C8C582C8CAC583CADFE9DEE780BE17
:010597000063
:00000001FF
